{
  "status": false,
  "gasUsed": "0x5561",
  "cumulativeGasUsed": "0x0",
  "blockNumber": "0x126265e",
  "type": "0x0",
  "logsBloom": "0x00000000000000000000000000000000000000000000000000000000000000000000000000000000000000000000000000000000000000000000000000000000000000000000000000000000000000000000000000000000000000000000000000000000000000000000000000000000000000000000000000000000000000000000000000000000000000000000000000000000000000000000000000000000000000000000000000000000000000000000000000000000000000000000000000000000000000000000000000000000000000000000000000000000000000000000000000000000000000000000000000000000000000000000000000000000",
  "logs": [],
  "trace": [
    {
      "type": "CALL",
      "from": "0xd8da6bf26964af9d7eed9e03e53415d37aa96045",
      "to": "0xc02aaa39b223fe8d0a0e5c4f27ead9083c756cc2",
      "gas": "0xbeb6dbc",
      "gasUsed": "0x11d",
      "value": "0xff",
      "error": "execution reverted",
      "input": "0xa9059cbb00000000000000000000000020a5814b73ef3537c6e099a0d45c798f4bd6e1d60000000000000000000000000000000000000000000000000000000000000001",
      "decodedInput": [
        {
          "value": "0x20a5814b73ef3537c6e099a0d45c798f4bd6e1d6",
          "type": "address",
          "name": "dst"
        },
        {
          "value": "1",
          "type": "uint256",
          "name": "wad"
        }
      ],
      "method": "transfer",
      "output": "0x",
      "subtraces": 0,
      "traceAddress": []
    }
  ]
}
