{
  "status": true,
  "gasUsed": "0x6605c",
  "cumulativeGasUsed": "0x6605c",
  "blockNumber": "0x15d4c7e",
  "type": "0x2",
  "logsBloom": "0x00000000030000000000010000000000000000000002000000000000000000000000000000000000000000000000000000000000000008000000000000000000400000000000000000000000000000000000000000000000000000000004000000000000000000000000000000000000000000000000000000000000100000000000800000000000000000000000004000000000000000000000000000000000000000000000000000000000000000000002000000000008000000000000000001000000000000000000000000002000000000000000000000000000000000000000000000000000000001000000000000000000000000000000000000000000",
  "logs": [
    {
      "name": "",
      "anonymous": false,
      "inputs": null,
      "raw": {
        "address": "0xf8e88d73636b29bddec82d71da805dc3abe55936",
        "topics": [
          "0x396804cc530be039a91bbe137a3dc0b0435d63b2d287fe495c78d822fb538d45",
          "0x00000000000000000000000000000000ab0604665505a3c92f2f494ed544ce2d"
        ],
        "data": "0x000000000000000000000000000000000000000000000000007869afad895dd9"
      }
    },
    {
      "name": "",
      "anonymous": false,
      "inputs": null,
      "raw": {
        "address": "0xf8e88d73636b29bddec82d71da805dc3abe55936",
        "topics": [
          "0x396804cc530be039a91bbe137a3dc0b0435d63b2d287fe495c78d822fb538d45",
          "0x000000000000000000000000000000009200a3be0009c50a80c8ce31650669ec"
        ],
        "data": "0x0000000000000000000000000000000000000000000000000163b0a76cc1ecb2"
      }
    },
    {
      "name": "",
      "anonymous": false,
      "inputs": null,
      "raw": {
        "address": "0xf8e88d73636b29bddec82d71da805dc3abe55936",
        "topics": [
          "0x396804cc530be039a91bbe137a3dc0b0435d63b2d287fe495c78d822fb538d45",
          "0x00000000000000000000000000000000dad0ff0f505da42e753b1dc366e00cdf"
        ],
        "data": "0x0000000000000000000000000000000000000000000000000078942152fa4683"
      }
    }
  ],
  "trace": [
    {
      "type": "CALL",
      "from": "0x6552bd56a494abce98b3e0fe632188a65f957a89",
      "to": "0xf8e88d73636b29bddec82d71da805dc3abe55936",
      "gas": "0x5e277",
      "gasUsed": "0x5c498",
      "value": "0x0",
      "input": "0xfcae390900000000000000000000000000000000000000000000000000000000000000400000000000000000000000000000000000000000000000000000000000000b000000000000000000000000000000000000000000000000000000000000000003000000000000000000000000000000000000000000000000000000000000006000000000000000000000000000000000000000000000000000000000000003c0000000000000000000000000000000000000000000000000000000000000072000000000000000000000000000000000ab0604665505a3c92f2f494ed544ce2d0000000000000000000000000000000000000000000000000000000000000001000000000000000000000000000000000000000000000000000000000000000100000000000000000000000000000000000000000000000000000000000000010000000000000000000000000000000000000000000000000000000000000120000000000000000000000000000000000000000000000000000000000000016000000000000000000000000000000000000000000000000000000000000001a0000000000000000000000000000000006000000000000000000000000000000000000000000000000000000000000000000000000000000000000000000002c00000000000000000000000000000000000000000000000000000000000000001000000000000000000000000a0b86991c6218b36c1d19d4a2e9eb0ce3606eb48000000000000000000000000000000000000000000000000000000000000000170a082310102ffffffffff0072e95b8931767c79ba4eee721354d6e99a61d00400000000000000000000000000000000000000000000000000000000000000030000000000000000000000000000000000000000000000000000000000000060000000000000000000000000000000000000000000000000000000000000008000000000000000000000000000000000000000000000000000000000000000c000000000000000000000000000000000000000000000000000000000000000000000000000000000000000000000000000000000000000000000000000000020ffffffffffffffffffffffffffffffffffffffffffffffffffffffffffffffff0000000000000000000000000000000000000000000000000000000000000020000000000000000000000000f8e88d73636b29bddec82d71da805dc3abe5593600000000000000000000000000000000000000000000000000000000000000045be3f315c9d45d0fa6d33bb9a131370e2c8ca41f4092cb165df9d989fadbcd250d9c6b925346708080c47ea00ccd7247e03ed61596df5753911b6266eb6f22b942fa8d121124c6e05e0d3d87ef6a01f25687c50a38d0248d87d230ae5413fbcaf1cb77f9746483986a90ede87968c704e01b724521246f4e5706b444d2f07679000000000000000000000000000000009200a3be0009c50a80c8ce31650669ec0000000000000000000000000000000000000000000000000000000000000000000000000000000000000000000000000000000000000000000000000000000100000000000000000000000000000000000000000000000000000000000000010000000000000000000000000000000000000000000000000000000000000120000000000000000000000000000000000000000000000000000000000000016000000000000000000000000000000000000000000000000000000000000001a0000000000000000000000000000000006000000000000000000000000000000000000000000000000000000000000000000000000000000000000000000002c00000000000000000000000000000000000000000000000000000000000000001000000000000000000000000c02aaa39b223fe8d0a0e5c4f27ead9083c756cc2000000000000000000000000000000000000000000000000000000000000000170a082310102ffffffffff004d5f47fa6a74757f35c14fd3a6ef8e3c9bc514e800000000000000000000000000000000000000000000000000000000000000030000000000000000000000000000000000000000000000000000000000000060000000000000000000000000000000000000000000000000000000000000008000000000000000000000000000000000000000000000000000000000000000c000000000000000000000000000000000000000000000000000000000000000000000000000000000000000000000000000000000000000000000000000000020ffffffffffffffffffffffffffffffffffffffffffffffffffffffffffffffff0000000000000000000000000000000000000000000000000000000000000020000000000000000000000000f8e88d73636b29bddec82d71da805dc3abe559360000000000000000000000000000000000000000000000000000000000000004ff07839f14b20558414ba7c3147d2ec00646cd3e68ce975ce44b717511d0b23330c21ff07f8e736038bc03fa25b7d0d4576858d194a3921934b8fbd39b65949542fa8d121124c6e05e0d3d87ef6a01f25687c50a38d0248d87d230ae5413fbcaf1cb77f9746483986a90ede87968c704e01b724521246f4e5706b444d2f0767900000000000000000000000000000000dad0ff0f505da42e753b1dc366e00cdf0000000000000000000000000000000000000000000000000000000000000000000000000000000000000000000000000000000000000000000000000000000000000000000000000000000000000000000000000000000000000000000000010000000000000000000000000000000000000000000000000000000000000120000000000000000000000000000000000000000000000000000000000000016000000000000000000000000000000000000000000000000000000000000001c0000000000000000000000000000000006000000000000000000000000000000000000000000000000000000000000000000000000000000000000000000002e00000000000000000000000000000000000000000000000000000000000000001000000000000000000000000a0b86991c6218b36c1d19d4a2e9eb0ce3606eb48000000000000000000000000000000000000000000000000000000000000000270a082310102ffffffffff02726104cfbd7ece2d1f5b3654a19109a9e2b6c27b4cdad5060102ffffffffff00a7569a44f348d3d70d8ad5889e50f78e33d80d3500000000000000000000000000000000000000000000000000000000000000030000000000000000000000000000000000000000000000000000000000000060000000000000000000000000000000000000000000000000000000000000008000000000000000000000000000000000000000000000000000000000000000c000000000000000000000000000000000000000000000000000000000000000000000000000000000000000000000000000000000000000000000000000000020ffffffffffffffffffffffffffffffffffffffffffffffffffffffffffffffff0000000000000000000000000000000000000000000000000000000000000020000000000000000000000000f8e88d73636b29bddec82d71da805dc3abe559360000000000000000000000000000000000000000000000000000000000000004aca06e99e162bc0d6106039a78d52ec39127c2738e393bf7544cf392cd797de49d6e263a2f437bf8a6d24b174689c0f699d7de31375f80d4adce1bc6e93c5fd56e75283e427d6628ccc1bd617627861b16e8de87765a93f76ada1a2496d85139f1cb77f9746483986a90ede87968c704e01b724521246f4e5706b444d2f0767900000000000000000000000000000000000000000000000000000000000000010000000000000000000000000000000000000000000000000000000000000001",
      "output": "0x000000000000000000000000000000000000000000000000000000000000004000000000000000000000000000000000000000000000000000000000000000c00000000000000000000000000000000000000000000000000000000000000003000000000000000000000000000000000000000000000000007869afad895dd90000000000000000000000000000000000000000000000000163b0a76cc1ecb20000000000000000000000000000000000000000000000000078942152fa46830000000000000000000000000000000000000000000000000000000000000003fffffffffffffffffffffffffffffffffffffffffffffffffff80e2339f6665600000000000000000000000000000000000000000000000000000263af0d1051fffffffffffffffffffffffffffffffffffffffffffffffffff820ba68966d95",
      "subtraces": 2,
      "traceAddress": []
    },
    {
      "type": "STATICCALL",
      "from": "0xf8e88d73636b29bddec82d71da805dc3abe55936",
      "to": "0x61749e91bb2b82ed4029e44fe8c9e8abd21207a6",
      "gas": "0x5c062",
      "gasUsed": "0x903",
      "input": "0x5c60da1b",
      "output": "0x00000000000000000000000037dbf7c78c37cd07d16ecba6471d8bd5975e940d",
      "decodedOutput": [
        {
          "value": "0x37dbf7c78c37cd07d16ecba6471d8bd5975e940d",
          "type": "address",
          "indexed": false
        }
      ],
      "subtraces": 0,
      "traceAddress": [
        0
      ]
    },
    {
      "type": "DELEGATECALL",
      "from": "0xf8e88d73636b29bddec82d71da805dc3abe55936",
      "to": "0x37dbf7c78c37cd07d16ecba6471d8bd5975e940d",
      "gas": "0x5aa6d",
      "gasUsed": "0x5a352",
      "input": "0xfcae390900000000000000000000000000000000000000000000000000000000000000400000000000000000000000000000000000000000000000000000000000000b000000000000000000000000000000000000000000000000000000000000000003000000000000000000000000000000000000000000000000000000000000006000000000000000000000000000000000000000000000000000000000000003c0000000000000000000000000000000000000000000000000000000000000072000000000000000000000000000000000ab0604665505a3c92f2f494ed544ce2d0000000000000000000000000000000000000000000000000000000000000001000000000000000000000000000000000000000000000000000000000000000100000000000000000000000000000000000000000000000000000000000000010000000000000000000000000000000000000000000000000000000000000120000000000000000000000000000000000000000000000000000000000000016000000000000000000000000000000000000000000000000000000000000001a0000000000000000000000000000000006000000000000000000000000000000000000000000000000000000000000000000000000000000000000000000002c00000000000000000000000000000000000000000000000000000000000000001000000000000000000000000a0b86991c6218b36c1d19d4a2e9eb0ce3606eb48000000000000000000000000000000000000000000000000000000000000000170a082310102ffffffffff0072e95b8931767c79ba4eee721354d6e99a61d00400000000000000000000000000000000000000000000000000000000000000030000000000000000000000000000000000000000000000000000000000000060000000000000000000000000000000000000000000000000000000000000008000000000000000000000000000000000000000000000000000000000000000c000000000000000000000000000000000000000000000000000000000000000000000000000000000000000000000000000000000000000000000000000000020ffffffffffffffffffffffffffffffffffffffffffffffffffffffffffffffff0000000000000000000000000000000000000000000000000000000000000020000000000000000000000000f8e88d73636b29bddec82d71da805dc3abe5593600000000000000000000000000000000000000000000000000000000000000045be3f315c9d45d0fa6d33bb9a131370e2c8ca41f4092cb165df9d989fadbcd250d9c6b925346708080c47ea00ccd7247e03ed61596df5753911b6266eb6f22b942fa8d121124c6e05e0d3d87ef6a01f25687c50a38d0248d87d230ae5413fbcaf1cb77f9746483986a90ede87968c704e01b724521246f4e5706b444d2f07679000000000000000000000000000000009200a3be0009c50a80c8ce31650669ec0000000000000000000000000000000000000000000000000000000000000000000000000000000000000000000000000000000000000000000000000000000100000000000000000000000000000000000000000000000000000000000000010000000000000000000000000000000000000000000000000000000000000120000000000000000000000000000000000000000000000000000000000000016000000000000000000000000000000000000000000000000000000000000001a0000000000000000000000000000000006000000000000000000000000000000000000000000000000000000000000000000000000000000000000000000002c00000000000000000000000000000000000000000000000000000000000000001000000000000000000000000c02aaa39b223fe8d0a0e5c4f27ead9083c756cc2000000000000000000000000000000000000000000000000000000000000000170a082310102ffffffffff004d5f47fa6a74757f35c14fd3a6ef8e3c9bc514e800000000000000000000000000000000000000000000000000000000000000030000000000000000000000000000000000000000000000000000000000000060000000000000000000000000000000000000000000000000000000000000008000000000000000000000000000000000000000000000000000000000000000c000000000000000000000000000000000000000000000000000000000000000000000000000000000000000000000000000000000000000000000000000000020ffffffffffffffffffffffffffffffffffffffffffffffffffffffffffffffff0000000000000000000000000000000000000000000000000000000000000020000000000000000000000000f8e88d73636b29bddec82d71da805dc3abe559360000000000000000000000000000000000000000000000000000000000000004ff07839f14b20558414ba7c3147d2ec00646cd3e68ce975ce44b717511d0b23330c21ff07f8e736038bc03fa25b7d0d4576858d194a3921934b8fbd39b65949542fa8d121124c6e05e0d3d87ef6a01f25687c50a38d0248d87d230ae5413fbcaf1cb77f9746483986a90ede87968c704e01b724521246f4e5706b444d2f0767900000000000000000000000000000000dad0ff0f505da42e753b1dc366e00cdf0000000000000000000000000000000000000000000000000000000000000000000000000000000000000000000000000000000000000000000000000000000000000000000000000000000000000000000000000000000000000000000000010000000000000000000000000000000000000000000000000000000000000120000000000000000000000000000000000000000000000000000000000000016000000000000000000000000000000000000000000000000000000000000001c0000000000000000000000000000000006000000000000000000000000000000000000000000000000000000000000000000000000000000000000000000002e00000000000000000000000000000000000000000000000000000000000000001000000000000000000000000a0b86991c6218b36c1d19d4a2e9eb0ce3606eb48000000000000000000000000000000000000000000000000000000000000000270a082310102ffffffffff02726104cfbd7ece2d1f5b3654a19109a9e2b6c27b4cdad5060102ffffffffff00a7569a44f348d3d70d8ad5889e50f78e33d80d3500000000000000000000000000000000000000000000000000000000000000030000000000000000000000000000000000000000000000000000000000000060000000000000000000000000000000000000000000000000000000000000008000000000000000000000000000000000000000000000000000000000000000c000000000000000000000000000000000000000000000000000000000000000000000000000000000000000000000000000000000000000000000000000000020ffffffffffffffffffffffffffffffffffffffffffffffffffffffffffffffff0000000000000000000000000000000000000000000000000000000000000020000000000000000000000000f8e88d73636b29bddec82d71da805dc3abe559360000000000000000000000000000000000000000000000000000000000000004aca06e99e162bc0d6106039a78d52ec39127c2738e393bf7544cf392cd797de49d6e263a2f437bf8a6d24b174689c0f699d7de31375f80d4adce1bc6e93c5fd56e75283e427d6628ccc1bd617627861b16e8de87765a93f76ada1a2496d85139f1cb77f9746483986a90ede87968c704e01b724521246f4e5706b444d2f0767900000000000000000000000000000000000000000000000000000000000000010000000000000000000000000000000000000000000000000000000000000001",
      "output": "0x000000000000000000000000000000000000000000000000000000000000004000000000000000000000000000000000000000000000000000000000000000c00000000000000000000000000000000000000000000000000000000000000003000000000000000000000000000000000000000000000000007869afad895dd90000000000000000000000000000000000000000000000000163b0a76cc1ecb20000000000000000000000000000000000000000000000000078942152fa46830000000000000000000000000000000000000000000000000000000000000003fffffffffffffffffffffffffffffffffffffffffffffffffff80e2339f6665600000000000000000000000000000000000000000000000000000263af0d1051fffffffffffffffffffffffffffffffffffffffffffffffffff820ba68966d95",
      "subtraces": 9,
      "traceAddress": [
        1
      ]
    },
    {
      "type": "DELEGATECALL",
      "from": "0xf8e88d73636b29bddec82d71da805dc3abe55936",
      "to": "0x39f84a71f9d9b11cd28176624f0c460de372214f",
      "gas": "0x4eadd",
      "gasUsed": "0x7b0d",
      "input": "0xde792d5f00000000000000000000000000000000000000000000000000000000000000400000000000000000000000000000000000000000000000000000000000000080000000000000000000000000000000000000000000000000000000000000000170a082310102ffffffffff0072e95b8931767c79ba4eee721354d6e99a61d00400000000000000000000000000000000000000000000000000000000000000030000000000000000000000000000000000000000000000000000000000000060000000000000000000000000000000000000000000000000000000000000008000000000000000000000000000000000000000000000000000000000000000c000000000000000000000000000000000000000000000000000000000000000000000000000000000000000000000000000000000000000000000000000000020ffffffffffffffffffffffffffffffffffffffffffffffffffffffffffffffff0000000000000000000000000000000000000000000000000000000000000020000000000000000000000000f8e88d73636b29bddec82d71da805dc3abe55936",
      "output": "0x00000000000000000000000000000000000000000000000000000000000000200000000000000000000000000000000000000000000000000000000000000003000000000000000000000000000000000000000000000000000000000000006000000000000000000000000000000000000000000000000000000000000000a000000000000000000000000000000000000000000000000000000000000000e000000000000000000000000000000000000000000000000000000000000000200000000000000000000000000000000000000000000000000000000005fa8af90000000000000000000000000000000000000000000000000000000000000020ffffffffffffffffffffffffffffffffffffffffffffffffffffffffffffffff0000000000000000000000000000000000000000000000000000000000000020000000000000000000000000f8e88d73636b29bddec82d71da805dc3abe55936",
      "subtraces": 1,
      "traceAddress": [
        1,
        0
      ]
    },
    {
      "type": "CALL",
      "from": "0xf8e88d73636b29bddec82d71da805dc3abe55936",
      "to": "0x72e95b8931767c79ba4eee721354d6e99a61d004",
      "gas": "0x4be71",
      "gasUsed": "0x5afe",
      "value": "0x0",
      "input": "0x70a08231000000000000000000000000f8e88d73636b29bddec82d71da805dc3abe55936",
      "decodedInput": [
        {
          "value": "0xf8e88d73636b29bddec82d71da805dc3abe55936",
          "type": "address",
          "name": "user",
          "indexed": false
        }
      ],
      "output": "0x0000000000000000000000000000000000000000000000000000000005fa8af9",
      "decodedOutput": [
        {
          "value": "100305657",
          "type": "uint256",
          "indexed": false
        }
      ],
      "subtraces": 1,
      "traceAddress": [
        1,
        0,
        0
      ]
    },
    {
      "type": "DELEGATECALL",
      "from": "0x72e95b8931767c79ba4eee721354d6e99a61d004",
      "to": "0xb58ed8ec66e43de3fecd27e351485e7efe006f38",
      "gas": "0x49833",
      "gasUsed": "0x4742",
      "input": "0x70a08231000000000000000000000000f8e88d73636b29bddec82d71da805dc3abe55936",
      "decodedInput": [
        {
          "value": "0xf8e88d73636b29bddec82d71da805dc3abe55936",
          "type": "address",
          "name": "user",
          "indexed": false
        }
      ],
      "method": "balanceOf",
      "output": "0x0000000000000000000000000000000000000000000000000000000005fa8af9",
      "decodedOutput": [
        {
          "value": "100305657",
          "type": "uint256",
          "indexed": false
        }
      ],
      "subtraces": 1,
      "traceAddress": [
        1,
        0,
        0,
        0
      ]
    },
    {
      "type": "STATICCALL",
      "from": "0x72e95b8931767c79ba4eee721354d6e99a61d004",
      "to": "0x87870bca3f3fd6335c3f4ce8392d69350b4fa4e2",
      "gas": "0x4694e",
      "gasUsed": "0x28f8",
      "input": "0x386497fd000000000000000000000000a0b86991c6218b36c1d19d4a2e9eb0ce3606eb48",
      "decodedInput": [
        {
          "value": "0xa0b86991c6218b36c1d19d4a2e9eb0ce3606eb48",
          "type": "address",
          "name": "asset",
          "indexed": false
        }
      ],
      "output": "0x000000000000000000000000000000000000000003d09126ebb5adbcfc220cff",
      "decodedOutput": [
        {
          "value": "1180597061044841570925415679",
          "type": "uint256",
          "indexed": false
        }
      ],
      "subtraces": 1,
      "traceAddress": [
        1,
        0,
        0,
        0,
        0
      ]
    },
    {
      "type": "DELEGATECALL",
      "from": "0x87870bca3f3fd6335c3f4ce8392d69350b4fa4e2",
      "to": "0x947f0054faed3481ff4e76ca35f12fbe36cc665b",
      "gas": "0x44484",
      "gasUsed": "0x155c",
      "input": "0x386497fd000000000000000000000000a0b86991c6218b36c1d19d4a2e9eb0ce3606eb48",
      "decodedInput": [
        {
          "value": "0xa0b86991c6218b36c1d19d4a2e9eb0ce3606eb48",
          "type": "address",
          "name": "asset",
          "indexed": false
        }
      ],
      "method": "getReserveNormalizedVariableDebt",
      "output": "0x000000000000000000000000000000000000000003d09126ebb5adbcfc220cff",
      "decodedOutput": [
        {
          "value": "1180597061044841570925415679",
          "type": "uint256",
          "indexed": false
        }
      ],
      "subtraces": 0,
      "traceAddress": [
        1,
        0,
        0,
        0,
        0,
        0
      ]
    },
    {
      "type": "STATICCALL",
      "from": "0xf8e88d73636b29bddec82d71da805dc3abe55936",
      "to": "0x41eea04d79f276ba2cbecaceaebf5a9f20aa0662",
      "gas": "0x43e89",
      "gasUsed": "0x1ca8",
      "input": "0x4bb93ab1",
      "output": "0x0000000000000000000000008d0b6d9d9e32d089b5a8b15f4f3a2de0a6d186dc",
      "subtraces": 1,
      "traceAddress": [
        1,
        1
      ]
    },
    {
      "type": "DELEGATECALL",
      "from": "0x41eea04d79f276ba2cbecaceaebf5a9f20aa0662",
      "to": "0x413e135d87b3c47eb712c48b6a726fd528d27dce",
      "gas": "0x41aba",
      "gasUsed": "0x960",
      "input": "0x4bb93ab1",
      "output": "0x0000000000000000000000008d0b6d9d9e32d089b5a8b15f4f3a2de0a6d186dc",
      "subtraces": 0,
      "traceAddress": [
        1,
        1,
        0
      ]
    },
    {
      "type": "STATICCALL",
      "from": "0xf8e88d73636b29bddec82d71da805dc3abe55936",
      "to": "0x8d0b6d9d9e32d089b5a8b15f4f3a2de0a6d186dc",
      "gas": "0x41680",
      "gasUsed": "0x10628",
      "input": "0xac41865a000000000000000000000000a0b86991c6218b36c1d19d4a2e9eb0ce3606eb48000000000000000000000000c02aaa39b223fe8d0a0e5c4f27ead9083c756cc2",
      "output": "0x00000000000000000000000000000000000000000000000000013351494faa57",
      "subtraces": 1,
      "traceAddress": [
        1,
        2
      ]
    },
    {
      "type": "DELEGATECALL",
      "from": "0x8d0b6d9d9e32d089b5a8b15f4f3a2de0a6d186dc",
      "to": "0x30dbde9bfaa43d2877861f2baaebfc7db10f1d66",
      "gas": "0x3f34b",
      "gasUsed": "0xf2da",
      "input": "0xac41865a000000000000000000000000a0b86991c6218b36c1d19d4a2e9eb0ce3606eb48000000000000000000000000c02aaa39b223fe8d0a0e5c4f27ead9083c756cc2",
      "output": "0x00000000000000000000000000000000000000000000000000013351494faa57",
      "subtraces": 5,
      "traceAddress": [
        1,
        2,
        0
      ]
    },
    {
      "type": "STATICCALL",
      "from": "0x8d0b6d9d9e32d089b5a8b15f4f3a2de0a6d186dc",
      "to": "0x8fffffd4afb6115b954bd326cbe7b4ba576818f6",
      "gas": "0x3b4c1",
      "gasUsed": "0x15ef",
      "input": "0x313ce567",
      "output": "0x0000000000000000000000000000000000000000000000000000000000000008",
      "decodedOutput": [
        {
          "value": 8,
          "type": "uint8",
          "indexed": false
        }
      ],
      "subtraces": 1,
      "traceAddress": [
        1,
        2,
        0,
        0
      ]
    },
    {
      "type": "STATICCALL",
      "from": "0x8fffffd4afb6115b954bd326cbe7b4ba576818f6",
      "to": "0xc9e1a09622afdb659913fefe800feae5dbbfe9d7",
      "gas": "0x391ec",
      "gasUsed": "0x111",
      "input": "0x313ce567",
      "output": "0x0000000000000000000000000000000000000000000000000000000000000008",
      "decodedOutput": [
        {
          "value": 8,
          "type": "uint8",
          "indexed": false
        }
      ],
      "subtraces": 0,
      "traceAddress": [
        1,
        2,
        0,
        0,
        0
      ]
    },
    {
      "type": "STATICCALL",
      "from": "0x8d0b6d9d9e32d089b5a8b15f4f3a2de0a6d186dc",
      "to": "0x5f4ec3df9cbd43714fe2740f5e3616155c5b8419",
      "gas": "0x39316",
      "gasUsed": "0x15ef",
      "input": "0x313ce567",
      "output": "0x0000000000000000000000000000000000000000000000000000000000000008",
      "decodedOutput": [
        {
          "value": 8,
          "type": "uint8",
          "indexed": false
        }
      ],
      "subtraces": 1,
      "traceAddress": [
        1,
        2,
        0,
        1
      ]
    },
    {
      "type": "STATICCALL",
      "from": "0x5f4ec3df9cbd43714fe2740f5e3616155c5b8419",
      "to": "0x7d4e742018fb52e48b08be73d041c18b21de6fb5",
      "gas": "0x370c7",
      "gasUsed": "0x111",
      "input": "0x313ce567",
      "output": "0x0000000000000000000000000000000000000000000000000000000000000008",
      "decodedOutput": [
        {
          "value": 8,
          "type": "uint8",
          "indexed": false
        }
      ],
      "subtraces": 0,
      "traceAddress": [
        1,
        2,
        0,
        1,
        0
      ]
    },
    {
      "type": "STATICCALL",
      "from": "0x8d0b6d9d9e32d089b5a8b15f4f3a2de0a6d186dc",
      "to": "0xc02aaa39b223fe8d0a0e5c4f27ead9083c756cc2",
      "gas": "0x37145",
      "gasUsed": "0x98c",
      "input": "0x313ce567",
      "output": "0x0000000000000000000000000000000000000000000000000000000000000012",
      "decodedOutput": [
        {
          "value": 18,
          "type": "uint8",
          "indexed": false
        }
      ],
      "subtraces": 0,
      "traceAddress": [
        1,
        2,
        0,
        2
      ]
    },
    {
      "type": "STATICCALL",
      "from": "0x8d0b6d9d9e32d089b5a8b15f4f3a2de0a6d186dc",
      "to": "0x8fffffd4afb6115b954bd326cbe7b4ba576818f6",
      "gas": "0x36477",
      "gasUsed": "0x2b86",
      "input": "0xfeaf968c",
      "output": "0x000000000000000000000000000000000000000000000003000000000000017e0000000000000000000000000000000000000000000000000000000005f5ca3a00000000000000000000000000000000000000000000000000000000686f732000000000000000000000000000000000000000000000000000000000686f732f000000000000000000000000000000000000000000000003000000000000017e",
      "decodedOutput": [
        {
          "value": "55340232221128655230",
          "type": "uint80",
          "name": "roundId",
          "indexed": false
        },
        {
          "value": "99994170",
          "type": "int256",
          "name": "answer",
          "indexed": false
        },
        {
          "value": "1752134432",
          "type": "uint256",
          "name": "startedAt",
          "indexed": false
        },
        {
          "value": "1752134447",
          "type": "uint256",
          "name": "updatedAt",
          "indexed": false
        },
        {
          "value": "55340232221128655230",
          "type": "uint80",
          "name": "answeredInRound",
          "indexed": false
        }
      ],
      "subtraces": 1,
      "traceAddress": [
        1,
        2,
        0,
        3
      ]
    },
    {
      "type": "STATICCALL",
      "from": "0x8fffffd4afb6115b954bd326cbe7b4ba576818f6",
      "to": "0xc9e1a09622afdb659913fefe800feae5dbbfe9d7",
      "gas": "0x34b24",
      "gasUsed": "0x1cf1",
      "input": "0xfeaf968c",
      "output": "0x000000000000000000000000000000000000000000000000000000000000017e0000000000000000000000000000000000000000000000000000000005f5ca3a00000000000000000000000000000000000000000000000000000000686f732000000000000000000000000000000000000000000000000000000000686f732f000000000000000000000000000000000000000000000000000000000000017e",
      "decodedOutput": [
        {
          "value": "382",
          "type": "uint80",
          "name": "roundId",
          "indexed": false
        },
        {
          "value": "99994170",
          "type": "int256",
          "name": "answer",
          "indexed": false
        },
        {
          "value": "1752134432",
          "type": "uint256",
          "name": "startedAt",
          "indexed": false
        },
        {
          "value": "1752134447",
          "type": "uint256",
          "name": "updatedAt",
          "indexed": false
        },
        {
          "value": "382",
          "type": "uint80",
          "name": "answeredInRound",
          "indexed": false
        }
      ],
      "subtraces": 0,
      "traceAddress": [
        1,
        2,
        0,
        3,
        0
      ]
    },
    {
      "type": "STATICCALL",
      "from": "0x8d0b6d9d9e32d089b5a8b15f4f3a2de0a6d186dc",
      "to": "0x5f4ec3df9cbd43714fe2740f5e3616155c5b8419",
      "gas": "0x32d24",
      "gasUsed": "0x2b86",
      "input": "0xfeaf968c",
      "output": "0x0000000000000000000000000000000000000000000000070000000000003a2400000000000000000000000000000000000000000000000000000044e6be304000000000000000000000000000000000000000000000000000000000687038ae00000000000000000000000000000000000000000000000000000000687038cf0000000000000000000000000000000000000000000000070000000000003a24",
      "decodedOutput": [
        {
          "value": "129127208515966876196",
          "type": "uint80",
          "name": "roundId",
          "indexed": false
        },
        {
          "value": "295929000000",
          "type": "int256",
          "name": "answer",
          "indexed": false
        },
        {
          "value": "1752185006",
          "type": "uint256",
          "name": "startedAt",
          "indexed": false
        },
        {
          "value": "1752185039",
          "type": "uint256",
          "name": "updatedAt",
          "indexed": false
        },
        {
          "value": "129127208515966876196",
          "type": "uint80",
          "name": "answeredInRound",
          "indexed": false
        }
      ],
      "subtraces": 1,
      "traceAddress": [
        1,
        2,
        0,
        4
      ]
    },
    {
      "type": "STATICCALL",
      "from": "0x5f4ec3df9cbd43714fe2740f5e3616155c5b8419",
      "to": "0x7d4e742018fb52e48b08be73d041c18b21de6fb5",
      "gas": "0x314af",
      "gasUsed": "0x1cf1",
      "input": "0xfeaf968c",
      "output": "0x0000000000000000000000000000000000000000000000000000000000003a2400000000000000000000000000000000000000000000000000000044e6be304000000000000000000000000000000000000000000000000000000000687038ae00000000000000000000000000000000000000000000000000000000687038cf0000000000000000000000000000000000000000000000000000000000003a24",
      "decodedOutput": [
        {
          "value": "14884",
          "type": "uint80",
          "name": "roundId",
          "indexed": false
        },
        {
          "value": "295929000000",
          "type": "int256",
          "name": "answer",
          "indexed": false
        },
        {
          "value": "1752185006",
          "type": "uint256",
          "name": "startedAt",
          "indexed": false
        },
        {
          "value": "1752185039",
          "type": "uint256",
          "name": "updatedAt",
          "indexed": false
        },
        {
          "value": "14884",
          "type": "uint80",
          "name": "answeredInRound",
          "indexed": false
        }
      ],
      "subtraces": 0,
      "traceAddress": [
        1,
        2,
        0,
        4,
        0
      ]
    },
    {
      "type": "STATICCALL",
      "from": "0xf8e88d73636b29bddec82d71da805dc3abe55936",
      "to": "0xa0b86991c6218b36c1d19d4a2e9eb0ce3606eb48",
      "gas": "0x30898",
      "gasUsed": "0x25c0",
      "input": "0x313ce567",
      "output": "0x0000000000000000000000000000000000000000000000000000000000000006",
      "decodedOutput": [
        {
          "value": 6,
          "type": "uint8",
          "indexed": false
        }
      ],
      "subtraces": 1,
      "traceAddress": [
        1,
        3
      ]
    },
    {
      "type": "DELEGATECALL",
      "from": "0xa0b86991c6218b36c1d19d4a2e9eb0ce3606eb48",
      "to": "0x43506849d7c04f9138d1a2050bbf3a0c054402dd",
      "gas": "0x2e0a0",
      "gasUsed": "0x94d",
      "input": "0x313ce567",
      "output": "0x0000000000000000000000000000000000000000000000000000000000000006",
      "decodedOutput": [
        {
          "value": 6,
          "type": "uint8",
          "indexed": false
        }
      ],
      "subtraces": 0,
      "traceAddress": [
        1,
        3,
        0
      ]
    },
    {
      "type": "DELEGATECALL",
      "from": "0xf8e88d73636b29bddec82d71da805dc3abe55936",
      "to": "0x39f84a71f9d9b11cd28176624f0c460de372214f",
      "gas": "0x298f2",
      "gasUsed": "0x5d8f",
      "input": "0xde792d5f00000000000000000000000000000000000000000000000000000000000000400000000000000000000000000000000000000000000000000000000000000080000000000000000000000000000000000000000000000000000000000000000170a082310102ffffffffff004d5f47fa6a74757f35c14fd3a6ef8e3c9bc514e800000000000000000000000000000000000000000000000000000000000000030000000000000000000000000000000000000000000000000000000000000060000000000000000000000000000000000000000000000000000000000000008000000000000000000000000000000000000000000000000000000000000000c000000000000000000000000000000000000000000000000000000000000000000000000000000000000000000000000000000000000000000000000000000020ffffffffffffffffffffffffffffffffffffffffffffffffffffffffffffffff0000000000000000000000000000000000000000000000000000000000000020000000000000000000000000f8e88d73636b29bddec82d71da805dc3abe55936",
      "output": "0x00000000000000000000000000000000000000000000000000000000000000200000000000000000000000000000000000000000000000000000000000000003000000000000000000000000000000000000000000000000000000000000006000000000000000000000000000000000000000000000000000000000000000a000000000000000000000000000000000000000000000000000000000000000e000000000000000000000000000000000000000000000000000000000000000200000000000000000000000000000000000000000000000000163b0a76cc1ecb20000000000000000000000000000000000000000000000000000000000000020ffffffffffffffffffffffffffffffffffffffffffffffffffffffffffffffff0000000000000000000000000000000000000000000000000000000000000020000000000000000000000000f8e88d73636b29bddec82d71da805dc3abe55936",
      "subtraces": 1,
      "traceAddress": [
        1,
        4
      ]
    },
    {
      "type": "CALL",
      "from": "0xf8e88d73636b29bddec82d71da805dc3abe55936",
      "to": "0x4d5f47fa6a74757f35c14fd3a6ef8e3c9bc514e8",
      "gas": "0x275cd",
      "gasUsed": "0x3d80",
      "value": "0x0",
      "input": "0x70a08231000000000000000000000000f8e88d73636b29bddec82d71da805dc3abe55936",
      "decodedInput": [
        {
          "value": "0xf8e88d73636b29bddec82d71da805dc3abe55936",
          "type": "address",
          "name": "user",
          "indexed": false
        }
      ],
      "output": "0x0000000000000000000000000000000000000000000000000163b0a76cc1ecb2",
      "decodedOutput": [
        {
          "value": "100117849862958258",
          "type": "uint256",
          "indexed": false
        }
      ],
      "subtraces": 1,
      "traceAddress": [
        1,
        4,
        0
      ]
    },
    {
      "type": "DELEGATECALL",
      "from": "0x4d5f47fa6a74757f35c14fd3a6ef8e3c9bc514e8",
      "to": "0x97f5b96c7dac8547251330b63760951a4fab448d",
      "gas": "0x258b2",
      "gasUsed": "0x29c4",
      "input": "0x70a08231000000000000000000000000f8e88d73636b29bddec82d71da805dc3abe55936",
      "decodedInput": [
        {
          "value": "0xf8e88d73636b29bddec82d71da805dc3abe55936",
          "type": "address",
          "name": "user",
          "indexed": false
        }
      ],
      "method": "balanceOf",
      "output": "0x0000000000000000000000000000000000000000000000000163b0a76cc1ecb2",
      "decodedOutput": [
        {
          "value": "100117849862958258",
          "type": "uint256",
          "indexed": false
        }
      ],
      "subtraces": 1,
      "traceAddress": [
        1,
        4,
        0,
        0
      ]
    },
    {
      "type": "STATICCALL",
      "from": "0x4d5f47fa6a74757f35c14fd3a6ef8e3c9bc514e8",
      "to": "0x87870bca3f3fd6335c3f4ce8392d69350b4fa4e2",
      "gas": "0x244fd",
      "gasUsed": "0x1541",
      "input": "0xd15e0053000000000000000000000000c02aaa39b223fe8d0a0e5c4f27ead9083c756cc2",
      "decodedInput": [
        {
          "value": "0xc02aaa39b223fe8d0a0e5c4f27ead9083c756cc2",
          "type": "address",
          "name": "asset",
          "indexed": false
        }
      ],
      "output": "0x000000000000000000000000000000000000000003631466402324d7887181d7",
      "decodedOutput": [
        {
          "value": "1048235019125014556486762967",
          "type": "uint256",
          "indexed": false
        }
      ],
      "subtraces": 1,
      "traceAddress": [
        1,
        4,
        0,
        0,
        0
      ]
    },
    {
      "type": "DELEGATECALL",
      "from": "0x87870bca3f3fd6335c3f4ce8392d69350b4fa4e2",
      "to": "0x947f0054faed3481ff4e76ca35f12fbe36cc665b",
      "gas": "0x239f3",
      "gasUsed": "0x1319",
      "input": "0xd15e0053000000000000000000000000c02aaa39b223fe8d0a0e5c4f27ead9083c756cc2",
      "decodedInput": [
        {
          "value": "0xc02aaa39b223fe8d0a0e5c4f27ead9083c756cc2",
          "type": "address",
          "name": "asset",
          "indexed": false
        }
      ],
      "method": "getReserveNormalizedIncome",
      "output": "0x000000000000000000000000000000000000000003631466402324d7887181d7",
      "decodedOutput": [
        {
          "value": "1048235019125014556486762967",
          "type": "uint256",
          "indexed": false
        }
      ],
      "subtraces": 0,
      "traceAddress": [
        1,
        4,
        0,
        0,
        0,
        0
      ]
    },
    {
      "type": "DELEGATECALL",
      "from": "0xf8e88d73636b29bddec82d71da805dc3abe55936",
      "to": "0x39f84a71f9d9b11cd28176624f0c460de372214f",
      "gas": "0x1d5d3",
      "gasUsed": "0x13b0b",
      "input": "0xde792d5f000000000000000000000000000000000000000000000000000000000000004000000000000000000000000000000000000000000000000000000000000000a0000000000000000000000000000000000000000000000000000000000000000270a082310102ffffffffff02726104cfbd7ece2d1f5b3654a19109a9e2b6c27b4cdad5060102ffffffffff00a7569a44f348d3d70d8ad5889e50f78e33d80d3500000000000000000000000000000000000000000000000000000000000000030000000000000000000000000000000000000000000000000000000000000060000000000000000000000000000000000000000000000000000000000000008000000000000000000000000000000000000000000000000000000000000000c000000000000000000000000000000000000000000000000000000000000000000000000000000000000000000000000000000000000000000000000000000020ffffffffffffffffffffffffffffffffffffffffffffffffffffffffffffffff0000000000000000000000000000000000000000000000000000000000000020000000000000000000000000f8e88d73636b29bddec82d71da805dc3abe55936",
      "output": "0x00000000000000000000000000000000000000000000000000000000000000200000000000000000000000000000000000000000000000000000000000000003000000000000000000000000000000000000000000000000000000000000006000000000000000000000000000000000000000000000000000000000000000a000000000000000000000000000000000000000000000000000000000000000e000000000000000000000000000000000000000000000000000000000000000200000000000000000000000000000000000000000000000000000000005fca6780000000000000000000000000000000000000000000000000000000000000020ffffffffffffffffffffffffffffffffffffffffffffffffffffffffffffffff0000000000000000000000000000000000000000000000000000000000000020000000000000000000000000000000000000000000000005597b42ec53b8dd39",
      "subtraces": 2,
      "traceAddress": [
        1,
        5
      ]
    },
    {
      "type": "CALL",
      "from": "0xf8e88d73636b29bddec82d71da805dc3abe55936",
      "to": "0x726104cfbd7ece2d1f5b3654a19109a9e2b6c27b",
      "gas": "0x1b5bb",
      "gasUsed": "0xa18",
      "value": "0x0",
      "input": "0x70a08231000000000000000000000000f8e88d73636b29bddec82d71da805dc3abe55936",
      "decodedInput": [
        {
          "value": "0xf8e88d73636b29bddec82d71da805dc3abe55936",
          "type": "address",
          "name": "account",
          "indexed": false
        }
      ],
      "method": "balanceOf",
      "output": "0x000000000000000000000000000000000000000000000005597b42ec53b8dd39",
      "decodedOutput": [
        {
          "value": "98681541242843094329",
          "type": "uint256",
          "indexed": false
        }
      ],
      "subtraces": 0,
      "traceAddress": [
        1,
        5,
        0
      ]
    },
    {
      "type": "CALL",
      "from": "0xf8e88d73636b29bddec82d71da805dc3abe55936",
      "to": "0xa7569a44f348d3d70d8ad5889e50f78e33d80d35",
      "gas": "0x19758",
      "gasUsed": "0xfc1d",
      "value": "0x0",
      "input": "0x4cdad506000000000000000000000000000000000000000000000005597b42ec53b8dd39",
      "decodedInput": [
        {
          "value": "98681541242843094329",
          "type": "uint256",
          "name": "shares",
          "indexed": false
        }
      ],
      "output": "0x0000000000000000000000000000000000000000000000000000000005fca678",
      "decodedOutput": [
        {
          "value": "100443768",
          "type": "uint256",
          "name": "assets",
          "indexed": false
        }
      ],
      "subtraces": 1,
      "traceAddress": [
        1,
        5,
        1
      ]
    },
    {
      "type": "DELEGATECALL",
      "from": "0xa7569a44f348d3d70d8ad5889e50f78e33d80d35",
      "to": "0xfb2ebdedc38a7d19080e44ab1d621bc9afad0695",
      "gas": "0x1751a",
      "gasUsed": "0xdfa4",
      "input": "0x4cdad506000000000000000000000000000000000000000000000005597b42ec53b8dd39",
      "decodedInput": [
        {
          "value": "98681541242843094329",
          "type": "uint256",
          "name": "shares",
          "indexed": false
        }
      ],
      "method": "previewRedeem",
      "output": "0x0000000000000000000000000000000000000000000000000000000005fca678",
      "decodedOutput": [
        {
          "value": "100443768",
          "type": "uint256",
          "name": "assets",
          "indexed": false
        }
      ],
      "subtraces": 1,
      "traceAddress": [
        1,
        5,
        1,
        0
      ]
    },
    {
      "type": "DELEGATECALL",
      "from": "0xa7569a44f348d3d70d8ad5889e50f78e33d80d35",
      "to": "0xd7bd5bcfaf5f3f9c92c430225e81978ef41b59a8",
      "gas": "0x160c9",
      "gasUsed": "0xcfec",
      "input": "0x5917e2a617264fbcd79a365fd3ccff89407ad487986f8b37b9035d6bc8b51cacd583220000000000000000000000000000000000000000000000000000000000000000000000000000000000000000000000000000000000000000000000000000000000000000000000000000000000000000000000000000000000000000000000000000000000000000000000000000000000000000000000000000000000000000a000000000000000000000000000000000000000000000000000000000000000244cdad506000000000000000000000000000000000000000000000005597b42ec53b8dd3900000000000000000000000000000000000000000000000000000000",
      "output": "0x0000000000000000000000000000000000000000000000000000000005fca678000000000000000000000000000000000000000000000005597b42d2cffa2dba",
      "subtraces": 1,
      "traceAddress": [
        1,
        5,
        1,
        0,
        0
      ]
    },
    {
      "type": "CALL",
      "from": "0xa7569a44f348d3d70d8ad5889e50f78e33d80d35",
      "to": "0xa7569a44f348d3d70d8ad5889e50f78e33d80d35",
      "gas": "0x15630",
      "gasUsed": "0xc939",
      "value": "0x0",
      "error": "execution reverted",
      "input": "0x4cdad506000000000000000000000000000000000000000000000005597b42ec53b8dd39",
      "decodedInput": [
        {
          "value": "98681541242843094329",
          "type": "uint256",
          "name": "shares",
          "indexed": false
        }
      ],
      "output": "0x",
      "subtraces": 1,
      "traceAddress": [
        1,
        5,
        1,
        0,
        0,
        0
      ]
    },
    {
      "type": "DELEGATECALL",
      "from": "0xa7569a44f348d3d70d8ad5889e50f78e33d80d35",
      "to": "0xfb2ebdedc38a7d19080e44ab1d621bc9afad0695",
      "gas": "0x14df5",
      "gasUsed": "0xc61d",
      "error": "execution reverted",
      "input": "0x4cdad506000000000000000000000000000000000000000000000005597b42ec53b8dd39",
      "decodedInput": [
        {
          "value": "98681541242843094329",
          "type": "uint256",
          "name": "shares",
          "indexed": false
        }
      ],
      "method": "previewRedeem",
      "output": "0x",
      "subtraces": 3,
      "traceAddress": [
        1,
        5,
        1,
        0,
        0,
        0,
        0
      ]
    },
    {
      "type": "DELEGATECALL",
      "from": "0xa7569a44f348d3d70d8ad5889e50f78e33d80d35",
      "to": "0xd7bd5bcfaf5f3f9c92c430225e81978ef41b59a8",
      "gas": "0x145f6",
      "gasUsed": "0x51fd",
      "input": "0x378847bb17264fbcd79a365fd3ccff89407ad487986f8b37b9035d6bc8b51cacd58322000000000000000000000000000000000000000000000000000000000000000002",
      "output": "0x0000000000000000000000000000000000000000000000000000114668d77af2",
      "subtraces": 2,
      "traceAddress": [
        1,
        5,
        1,
        0,
        0,
        0,
        0,
        0
      ]
    },
    {
      "type": "DELEGATECALL",
      "from": "0xa7569a44f348d3d70d8ad5889e50f78e33d80d35",
      "to": "0x1f11f08aa558f6313e3885a9a1ddb5365148b179",
      "gas": "0x1354f",
      "gasUsed": "0x1673",
      "input": "0xd0a94d2c17264fbcd79a365fd3ccff89407ad487986f8b37b9035d6bc8b51cacd583220c",
      "output": "0x0000000000000000000000003ee3f7a0b244004b0678eba98ba091ec101513ee",
      "subtraces": 1,
      "traceAddress": [
        1,
        5,
        1,
        0,
        0,
        0,
        0,
        0,
        0
      ]
    },
    {
      "type": "DELEGATECALL",
      "from": "0xa7569a44f348d3d70d8ad5889e50f78e33d80d35",
      "to": "0x89ee0134df602fede54f273c34bbfc876cfaf093",
      "gas": "0x1250a",
      "gasUsed": "0x9cd",
      "input": "0x332306c017264fbcd79a365fd3ccff89407ad487986f8b37b9035d6bc8b51cacd583220c",
      "output": "0x0000000000000000000000003ee3f7a0b244004b0678eba98ba091ec101513ee",
      "subtraces": 0,
      "traceAddress": [
        1,
        5,
        1,
        0,
        0,
        0,
        0,
        0,
        0,
        0
      ]
    },
    {
      "type": "STATICCALL",
      "from": "0xa7569a44f348d3d70d8ad5889e50f78e33d80d35",
      "to": "0xa7569a44f348d3d70d8ad5889e50f78e33d80d35",
      "gas": "0x11d35",
      "gasUsed": "0x23a2",
      "input": "0xa90a227a0000000000000000000000000000000000000000000000000000000000000002",
      "decodedInput": [
        {
          "value": 2,
          "type": "uint8",
          "name": "purpose",
          "indexed": false
        }
      ],
      "output": "0x0000000000000000000000000000000000000000000000000000114668d77af2",
      "decodedOutput": [
        {
          "value": "18994104335090",
          "type": "uint256",
          "indexed": false
        }
      ],
      "subtraces": 1,
      "traceAddress": [
        1,
        5,
        1,
        0,
        0,
        0,
        0,
        0,
        1
      ]
    },
    {
      "type": "DELEGATECALL",
      "from": "0xa7569a44f348d3d70d8ad5889e50f78e33d80d35",
      "to": "0xfb2ebdedc38a7d19080e44ab1d621bc9afad0695",
      "gas": "0x115de",
      "gasUsed": "0x208d",
      "input": "0xa90a227a0000000000000000000000000000000000000000000000000000000000000002",
      "decodedInput": [
        {
          "value": 2,
          "type": "uint8",
          "name": "purpose",
          "indexed": false
        }
      ],
      "method": "totalAssets",
      "output": "0x0000000000000000000000000000000000000000000000000000114668d77af2",
      "decodedOutput": [
        {
          "value": "18994104335090",
          "type": "uint256",
          "indexed": false
        }
      ],
      "subtraces": 1,
      "traceAddress": [
        1,
        5,
        1,
        0,
        0,
        0,
        0,
        0,
        1,
        0
      ]
    },
    {
      "type": "DELEGATECALL",
      "from": "0xa7569a44f348d3d70d8ad5889e50f78e33d80d35",
      "to": "0xf85b8eb4e7b2d26b7a72c172d0b7718f9ad4a8c8",
      "gas": "0x104f3",
      "gasUsed": "0x12eb",
      "input": "0x20bf782e17264fbcd79a365fd3ccff89407ad487986f8b37b9035d6bc8b51cacd58322210000000000000000000000000000000000000000000000000000000000000002",
      "output": "0x0000000000000000000000000000000000000000000000000000114668d77af2",
      "subtraces": 0,
      "traceAddress": [
        1,
        5,
        1,
        0,
        0,
        0,
        0,
        0,
        1,
        0,
        0
      ]
    },
    {
      "type": "DELEGATECALL",
      "from": "0xa7569a44f348d3d70d8ad5889e50f78e33d80d35",
      "to": "0xf85b8eb4e7b2d26b7a72c172d0b7718f9ad4a8c8",
      "gas": "0xf3e2",
      "gasUsed": "0x27c6",
      "input": "0x18160ddd",
      "output": "0x0000000000000000000000000000000000000000000f6f9776109678a5ef41ff",
      "decodedOutput": [
        {
          "value": "18660863939638239408636415",
          "type": "uint256",
          "indexed": false
        }
      ],
      "subtraces": 1,
      "traceAddress": [
        1,
        5,
        1,
        0,
        0,
        0,
        0,
        1
      ]
    },
    {
      "type": "DELEGATECALL",
      "from": "0xa7569a44f348d3d70d8ad5889e50f78e33d80d35",
      "to": "0xff10c647b55688fe5473d9f6c456c4d7550e4fc8",
      "gas": "0xe534",
      "gasUsed": "0x1359",
      "input": "0x3906c18f17264fbcd79a365fd3ccff89407ad487986f8b37b9035d6bc8b51cacd5832200",
      "output": "0x00000000000000000000000000000000000000000000002520f5589d73b7a005",
      "subtraces": 0,
      "traceAddress": [
        1,
        5,
        1,
        0,
        0,
        0,
        0,
        1,
        0
      ]
    },
    {
      "type": "DELEGATECALL",
      "from": "0xa7569a44f348d3d70d8ad5889e50f78e33d80d35",
      "to": "0xd7bd5bcfaf5f3f9c92c430225e81978ef41b59a8",
      "gas": "0xc700",
      "gasUsed": "0x4223",
      "error": "execution reverted",
      "input": "0x5917e2a617264fbcd79a365fd3ccff89407ad487986f8b37b9035d6bc8b51cacd583220000000000000000000000000000000000000000000000000000000000000000000000000000000000000000000000000000000000000000000000000005fca6780000000000000000000000000000000000000000000000000000114668d77af200000000000000000000000000000000000000000000000000000000000000a000000000000000000000000000000000000000000000000000000000000000244cdad506000000000000000000000000000000000000000000000005597b42ec53b8dd3900000000000000000000000000000000000000000000000000000000",
      "output": "0x",
      "subtraces": 2,
      "traceAddress": [
        1,
        5,
        1,
        0,
        0,
        0,
        0,
        2
      ]
    },
    {
      "type": "STATICCALL",
      "from": "0xa7569a44f348d3d70d8ad5889e50f78e33d80d35",
      "to": "0xa7569a44f348d3d70d8ad5889e50f78e33d80d35",
      "gas": "0xb940",
      "gasUsed": "0xc24",
      "input": "0x18160ddd",
      "output": "0x0000000000000000000000000000000000000000000f6f9776109678a5ef41ff",
      "decodedOutput": [
        {
          "value": "18660863939638239408636415",
          "type": "uint256",
          "indexed": false
        }
      ],
      "subtraces": 1,
      "traceAddress": [
        1,
        5,
        1,
        0,
        0,
        0,
        0,
        2,
        0
      ]
    },
    {
      "type": "DELEGATECALL",
      "from": "0xa7569a44f348d3d70d8ad5889e50f78e33d80d35",
      "to": "0xfb2ebdedc38a7d19080e44ab1d621bc9afad0695",
      "gas": "0xb37c",
      "gasUsed": "0x912",
      "input": "0x18160ddd",
      "output": "0x0000000000000000000000000000000000000000000f6f9776109678a5ef41ff",
      "decodedOutput": [
        {
          "value": "18660863939638239408636415",
          "type": "uint256",
          "indexed": false
        }
      ],
      "subtraces": 1,
      "traceAddress": [
        1,
        5,
        1,
        0,
        0,
        0,
        0,
        2,
        0,
        0
      ]
    },
    {
      "type": "DELEGATECALL",
      "from": "0xa7569a44f348d3d70d8ad5889e50f78e33d80d35",
      "to": "0xf85b8eb4e7b2d26b7a72c172d0b7718f9ad4a8c8",
      "gas": "0xaf11",
      "gasUsed": "0x692",
      "input": "0x18160ddd",
      "output": "0x0000000000000000000000000000000000000000000f6f9776109678a5ef41ff",
      "decodedOutput": [
        {
          "value": "18660863939638239408636415",
          "type": "uint256",
          "indexed": false
        }
      ],
      "subtraces": 1,
      "traceAddress": [
        1,
        5,
        1,
        0,
        0,
        0,
        0,
        2,
        0,
        0,
        0
      ]
    },
    {
      "type": "DELEGATECALL",
      "from": "0xa7569a44f348d3d70d8ad5889e50f78e33d80d35",
      "to": "0xff10c647b55688fe5473d9f6c456c4d7550e4fc8",
      "gas": "0xab13",
      "gasUsed": "0x3b9",
      "input": "0x3906c18f17264fbcd79a365fd3ccff89407ad487986f8b37b9035d6bc8b51cacd5832200",
      "output": "0x00000000000000000000000000000000000000000000002520f5589d73b7a005",
      "subtraces": 0,
      "traceAddress": [
        1,
        5,
        1,
        0,
        0,
        0,
        0,
        2,
        0,
        0,
        0,
        0
      ]
    },
    {
      "type": "STATICCALL",
      "from": "0xa7569a44f348d3d70d8ad5889e50f78e33d80d35",
      "to": "0xa7569a44f348d3d70d8ad5889e50f78e33d80d35",
      "gas": "0xab52",
      "gasUsed": "0x746",
      "input": "0x77f748d00000000000000000000000000000000000000000000000000000000005fca6780000000000000000000000000000000000000000000000000000114668d77af20000000000000000000000000000000000000000000f6f9776109678a5ef41ff0000000000000000000000000000000000000000000000000000000000000001",
      "decodedInput": [
        {
          "value": "100443768",
          "type": "uint256",
          "name": "assets",
          "indexed": false
        },
        {
          "value": "18994104335090",
          "type": "uint256",
          "name": "totalAssetsForPurpose",
          "indexed": false
        },
        {
          "value": "18660863939638239408636415",
          "type": "uint256",
          "name": "supply",
          "indexed": false
        },
        {
          "value": 1,
          "type": "uint8",
          "name": "rounding",
          "indexed": false
        }
      ],
      "output": "0x000000000000000000000000000000000000000000000005597b42d2cffa2dba",
      "decodedOutput": [
        {
          "value": "98681541133258599866",
          "type": "uint256",
          "name": "shares",
          "indexed": false
        }
      ],
      "subtraces": 1,
      "traceAddress": [
        1,
        5,
        1,
        0,
        0,
        0,
        0,
        2,
        1
      ]
    },
    {
      "type": "DELEGATECALL",
      "from": "0xa7569a44f348d3d70d8ad5889e50f78e33d80d35",
      "to": "0xfb2ebdedc38a7d19080e44ab1d621bc9afad0695",
      "gas": "0xa5b4",
      "gasUsed": "0x422",
      "input": "0x77f748d00000000000000000000000000000000000000000000000000000000005fca6780000000000000000000000000000000000000000000000000000114668d77af20000000000000000000000000000000000000000000f6f9776109678a5ef41ff0000000000000000000000000000000000000000000000000000000000000001",
      "decodedInput": [
        {
          "value": "100443768",
          "type": "uint256",
          "name": "assets",
          "indexed": false
        },
        {
          "value": "18994104335090",
          "type": "uint256",
          "name": "totalAssetsForPurpose",
          "indexed": false
        },
        {
          "value": "18660863939638239408636415",
          "type": "uint256",
          "name": "supply",
          "indexed": false
        },
        {
          "value": 1,
          "type": "uint8",
          "name": "rounding",
          "indexed": false
        }
      ],
      "method": "convertToShares0",
      "output": "0x000000000000000000000000000000000000000000000005597b42d2cffa2dba",
      "decodedOutput": [
        {
          "value": "98681541133258599866",
          "type": "uint256",
          "name": "shares",
          "indexed": false
        }
      ],
      "subtraces": 0,
      "traceAddress": [
        1,
        5,
        1,
        0,
        0,
        0,
        0,
        2,
        1,
        0
      ]
    },
    {
      "type": "STATICCALL",
      "from": "0xf8e88d73636b29bddec82d71da805dc3abe55936",
      "to": "0x41eea04d79f276ba2cbecaceaebf5a9f20aa0662",
      "gas": "0x857b",
      "gasUsed": "0x344",
      "input": "0x4bb93ab1",
      "output": "0x0000000000000000000000008d0b6d9d9e32d089b5a8b15f4f3a2de0a6d186dc",
      "subtraces": 1,
      "traceAddress": [
        1,
        6
      ]
    },
    {
      "type": "DELEGATECALL",
      "from": "0x41eea04d79f276ba2cbecaceaebf5a9f20aa0662",
      "to": "0x413e135d87b3c47eb712c48b6a726fd528d27dce",
      "gas": "0x81de",
      "gasUsed": "0x190",
      "input": "0x4bb93ab1",
      "output": "0x0000000000000000000000008d0b6d9d9e32d089b5a8b15f4f3a2de0a6d186dc",
      "subtraces": 0,
      "traceAddress": [
        1,
        6,
        0
      ]
    },
    {
      "type": "STATICCALL",
      "from": "0xf8e88d73636b29bddec82d71da805dc3abe55936",
      "to": "0x8d0b6d9d9e32d089b5a8b15f4f3a2de0a6d186dc",
      "gas": "0x800c",
      "gasUsed": "0x3ef0",
      "input": "0xac41865a000000000000000000000000a0b86991c6218b36c1d19d4a2e9eb0ce3606eb48000000000000000000000000c02aaa39b223fe8d0a0e5c4f27ead9083c756cc2",
      "output": "0x00000000000000000000000000000000000000000000000000013351494faa57",
      "subtraces": 1,
      "traceAddress": [
        1,
        7
      ]
    },
    {
      "type": "DELEGATECALL",
      "from": "0x8d0b6d9d9e32d089b5a8b15f4f3a2de0a6d186dc",
      "to": "0x30dbde9bfaa43d2877861f2baaebfc7db10f1d66",
      "gas": "0x7c7f",
      "gasUsed": "0x3d36",
      "input": "0xac41865a000000000000000000000000a0b86991c6218b36c1d19d4a2e9eb0ce3606eb48000000000000000000000000c02aaa39b223fe8d0a0e5c4f27ead9083c756cc2",
      "output": "0x00000000000000000000000000000000000000000000000000013351494faa57",
      "subtraces": 5,
      "traceAddress": [
        1,
        7,
        0
      ]
    },
    {
      "type": "STATICCALL",
      "from": "0x8d0b6d9d9e32d089b5a8b15f4f3a2de0a6d186dc",
      "to": "0x8fffffd4afb6115b954bd326cbe7b4ba576818f6",
      "gas": "0x7430",
      "gasUsed": "0x45b",
      "input": "0x313ce567",
      "output": "0x0000000000000000000000000000000000000000000000000000000000000008",
      "decodedOutput": [
        {
          "value": 8,
          "type": "uint8",
          "indexed": false
        }
      ],
      "subtraces": 1,
      "traceAddress": [
        1,
        7,
        0,
        0
      ]
    },
    {
      "type": "STATICCALL",
      "from": "0x8fffffd4afb6115b954bd326cbe7b4ba576818f6",
      "to": "0xc9e1a09622afdb659913fefe800feae5dbbfe9d7",
      "gas": "0x6fab",
      "gasUsed": "0x111",
      "input": "0x313ce567",
      "output": "0x0000000000000000000000000000000000000000000000000000000000000008",
      "decodedOutput": [
        {
          "value": 8,
          "type": "uint8",
          "indexed": false
        }
      ],
      "subtraces": 0,
      "traceAddress": [
        1,
        7,
        0,
        0,
        0
      ]
    },
    {
      "type": "STATICCALL",
      "from": "0x8d0b6d9d9e32d089b5a8b15f4f3a2de0a6d186dc",
      "to": "0x5f4ec3df9cbd43714fe2740f5e3616155c5b8419",
      "gas": "0x6d70",
      "gasUsed": "0x45b",
      "input": "0x313ce567",
      "output": "0x0000000000000000000000000000000000000000000000000000000000000008",
      "decodedOutput": [
        {
          "value": 8,
          "type": "uint8",
          "indexed": false
        }
      ],
      "subtraces": 1,
      "traceAddress": [
        1,
        7,
        0,
        1
      ]
    },
    {
      "type": "STATICCALL",
      "from": "0x5f4ec3df9cbd43714fe2740f5e3616155c5b8419",
      "to": "0x7d4e742018fb52e48b08be73d041c18b21de6fb5",
      "gas": "0x6906",
      "gasUsed": "0x111",
      "input": "0x313ce567",
      "output": "0x0000000000000000000000000000000000000000000000000000000000000008",
      "decodedOutput": [
        {
          "value": 8,
          "type": "uint8",
          "indexed": false
        }
      ],
      "subtraces": 0,
      "traceAddress": [
        1,
        7,
        0,
        1,
        0
      ]
    },
    {
      "type": "STATICCALL",
      "from": "0x8d0b6d9d9e32d089b5a8b15f4f3a2de0a6d186dc",
      "to": "0xc02aaa39b223fe8d0a0e5c4f27ead9083c756cc2",
      "gas": "0x668a",
      "gasUsed": "0x1bc",
      "input": "0x313ce567",
      "output": "0x0000000000000000000000000000000000000000000000000000000000000012",
      "decodedOutput": [
        {
          "value": 18,
          "type": "uint8",
          "indexed": false
        }
      ],
      "subtraces": 0,
      "traceAddress": [
        1,
        7,
        0,
        2
      ]
    },
    {
      "type": "STATICCALL",
      "from": "0x8d0b6d9d9e32d089b5a8b15f4f3a2de0a6d186dc",
      "to": "0x8fffffd4afb6115b954bd326cbe7b4ba576818f6",
      "gas": "0x616d",
      "gasUsed": "0xc46",
      "input": "0xfeaf968c",
      "output": "0x000000000000000000000000000000000000000000000003000000000000017e0000000000000000000000000000000000000000000000000000000005f5ca3a00000000000000000000000000000000000000000000000000000000686f732000000000000000000000000000000000000000000000000000000000686f732f000000000000000000000000000000000000000000000003000000000000017e",
      "decodedOutput": [
        {
          "value": "55340232221128655230",
          "type": "uint80",
          "name": "roundId",
          "indexed": false
        },
        {
          "value": "99994170",
          "type": "int256",
          "name": "answer",
          "indexed": false
        },
        {
          "value": "1752134432",
          "type": "uint256",
          "name": "startedAt",
          "indexed": false
        },
        {
          "value": "1752134447",
          "type": "uint256",
          "name": "updatedAt",
          "indexed": false
        },
        {
          "value": "55340232221128655230",
          "type": "uint80",
          "name": "answeredInRound",
          "indexed": false
        }
      ],
      "subtraces": 1,
      "traceAddress": [
        1,
        7,
        0,
        3
      ]
    },
    {
      "type": "STATICCALL",
      "from": "0x8fffffd4afb6115b954bd326cbe7b4ba576818f6",
      "to": "0xc9e1a09622afdb659913fefe800feae5dbbfe9d7",
      "gas": "0x5bd7",
      "gasUsed": "0x581",
      "input": "0xfeaf968c",
      "output": "0x000000000000000000000000000000000000000000000000000000000000017e0000000000000000000000000000000000000000000000000000000005f5ca3a00000000000000000000000000000000000000000000000000000000686f732000000000000000000000000000000000000000000000000000000000686f732f000000000000000000000000000000000000000000000000000000000000017e",
      "decodedOutput": [
        {
          "value": "382",
          "type": "uint80",
          "name": "roundId",
          "indexed": false
        },
        {
          "value": "99994170",
          "type": "int256",
          "name": "answer",
          "indexed": false
        },
        {
          "value": "1752134432",
          "type": "uint256",
          "name": "startedAt",
          "indexed": false
        },
        {
          "value": "1752134447",
          "type": "uint256",
          "name": "updatedAt",
          "indexed": false
        },
        {
          "value": "382",
          "type": "uint80",
          "name": "answeredInRound",
          "indexed": false
        }
      ],
      "subtraces": 0,
      "traceAddress": [
        1,
        7,
        0,
        3,
        0
      ]
    },
    {
      "type": "STATICCALL",
      "from": "0x8d0b6d9d9e32d089b5a8b15f4f3a2de0a6d186dc",
      "to": "0x5f4ec3df9cbd43714fe2740f5e3616155c5b8419",
      "gas": "0x508d",
      "gasUsed": "0xc46",
      "input": "0xfeaf968c",
      "output": "0x0000000000000000000000000000000000000000000000070000000000003a2400000000000000000000000000000000000000000000000000000044e6be304000000000000000000000000000000000000000000000000000000000687038ae00000000000000000000000000000000000000000000000000000000687038cf0000000000000000000000000000000000000000000000070000000000003a24",
      "decodedOutput": [
        {
          "value": "129127208515966876196",
          "type": "uint80",
          "name": "roundId",
          "indexed": false
        },
        {
          "value": "295929000000",
          "type": "int256",
          "name": "answer",
          "indexed": false
        },
        {
          "value": "1752185006",
          "type": "uint256",
          "name": "startedAt",
          "indexed": false
        },
        {
          "value": "1752185039",
          "type": "uint256",
          "name": "updatedAt",
          "indexed": false
        },
        {
          "value": "129127208515966876196",
          "type": "uint80",
          "name": "answeredInRound",
          "indexed": false
        }
      ],
      "subtraces": 1,
      "traceAddress": [
        1,
        7,
        0,
        4
      ]
    },
    {
      "type": "STATICCALL",
      "from": "0x5f4ec3df9cbd43714fe2740f5e3616155c5b8419",
      "to": "0x7d4e742018fb52e48b08be73d041c18b21de6fb5",
      "gas": "0x4b3b",
      "gasUsed": "0x581",
      "input": "0xfeaf968c",
      "output": "0x0000000000000000000000000000000000000000000000000000000000003a2400000000000000000000000000000000000000000000000000000044e6be304000000000000000000000000000000000000000000000000000000000687038ae00000000000000000000000000000000000000000000000000000000687038cf0000000000000000000000000000000000000000000000000000000000003a24",
      "decodedOutput": [
        {
          "value": "14884",
          "type": "uint80",
          "name": "roundId",
          "indexed": false
        },
        {
          "value": "295929000000",
          "type": "int256",
          "name": "answer",
          "indexed": false
        },
        {
          "value": "1752185006",
          "type": "uint256",
          "name": "startedAt",
          "indexed": false
        },
        {
          "value": "1752185039",
          "type": "uint256",
          "name": "updatedAt",
          "indexed": false
        },
        {
          "value": "14884",
          "type": "uint80",
          "name": "answeredInRound",
          "indexed": false
        }
      ],
      "subtraces": 0,
      "traceAddress": [
        1,
        7,
        0,
        4,
        0
      ]
    },
    {
      "type": "STATICCALL",
      "from": "0xf8e88d73636b29bddec82d71da805dc3abe55936",
      "to": "0xa0b86991c6218b36c1d19d4a2e9eb0ce3606eb48",
      "gas": "0x3fdb",
      "gasUsed": "0x48c",
      "input": "0x313ce567",
      "output": "0x0000000000000000000000000000000000000000000000000000000000000006",
      "decodedOutput": [
        {
          "value": 6,
          "type": "uint8",
          "indexed": false
        }
      ],
      "subtraces": 1,
      "traceAddress": [
        1,
        8
      ]
    },
    {
      "type": "DELEGATECALL",
      "from": "0xa0b86991c6218b36c1d19d4a2e9eb0ce3606eb48",
      "to": "0x43506849d7c04f9138d1a2050bbf3a0c054402dd",
      "gas": "0x3c05",
      "gasUsed": "0x17d",
      "input": "0x313ce567",
      "output": "0x0000000000000000000000000000000000000000000000000000000000000006",
      "decodedOutput": [
        {
          "value": 6,
          "type": "uint8",
          "indexed": false
        }
      ],
      "subtraces": 0,
      "traceAddress": [
        1,
        8,
        0
      ]
    }
  ],
  "stateChanges": [
    {
      "address": "0x6552bd56a494abce98b3e0fe632188a65f957a89",
      "nonce": {
        "previousValue": "0x55",
        "newValue": "0x56"
      },
      "balance": {
        "previousValue": "0x27337a06bd9cb6e",
        "newValue": "0x2546fded10dcfc6"
      }
    },
    {
      "address": "0xdadb0d80178819f2319190d340ce9a924f783711",
      "balance": {
        "previousValue": "0x1b2eebe2ca419e69b",
        "newValue": "0x1b2eee42e42d6c29b"
      }
    },
    {
      "address": "0xf8e88d73636b29bddec82d71da805dc3abe55936",
      "storage": [
        {
          "slot": "0x23825dd9329627497ec75af43f45524be68e8ccea1fd52a7ac5beacc47af6ae8",
          "previousValue": "0x00000000000000000000000000000000000000000000000000000000686f8ff7",
          "newValue": "0x00000000000000000000000000000000000000000000000000000000687038f3"
        },
        {
          "slot": "0x23825dd9329627497ec75af43f45524be68e8ccea1fd52a7ac5beacc47af6ae9",
          "previousValue": "0x00000000000000000000000000000000000000000000000000807366ea63d8ee",
          "newValue": "0x0000000000000000000000000000000000000000000000000078942152fa4683"
        },
        {
          "slot": "0x553e31e38d71339f432c46078d872e31349ac2ff128ed0f2a1aa5d0985cf3570",
          "previousValue": "0x00000000000000000000000000000000000000000000000000000000686f8ff7",
          "newValue": "0x00000000000000000000000000000000000000000000000000000000687038f3"
        },
        {
          "slot": "0x553e31e38d71339f432c46078d872e31349ac2ff128ed0f2a1aa5d0985cf3571",
          "previousValue": "0x00000000000000000000000000000000000000000000000000805b8c7392f783",
          "newValue": "0x000000000000000000000000000000000000000000000000007869afad895dd9"
        },
        {
          "slot": "0x7be944c1a933f0a010c95e4998542a77e4797da97d4c0cf28ed6ac1d9be0a056",
          "previousValue": "0x00000000000000000000000000000000000000000000000000000000686f8ff7",
          "newValue": "0x00000000000000000000000000000000000000000000000000000000687038f3"
        },
        {
          "slot": "0x7be944c1a933f0a010c95e4998542a77e4797da97d4c0cf28ed6ac1d9be0a057",
          "previousValue": "0x0000000000000000000000000000000000000000000000000163ae43bdb4dc61",
          "newValue": "0x0000000000000000000000000000000000000000000000000163b0a76cc1ecb2"
        }
      ]
    }
  ]
}
