{
  "status": true,
  "gasUsed": "0x2da74",
  "cumulativeGasUsed": "0x2da74",
  "blockNumber": "0xfbc520",
  "type": "0x2",
  "logsBloom": "0x00200080000000000000000080000000000000000000000000010040000000000000000000000000000000000000000002000000080000000000000000000000000000000000000000000008000000200000000000000008000000008000000000000000000000001000000000000000000000000000800040000010000000000000000000000000004000000000000000000001080000080000004000000000000000000000000000080000000000000000000000000000000200000000000000000002000000000000000000000000004000000000001000010000000020000000200000000000000000200000000000000000000000400000000000000000",
  "logs": [
    {
      "name": "Deposit",
      "anonymous": false,
      "inputs": [
        {
          "value": "0x7a250d5630b4cf539739df2c5dacb4c659f2488d",
          "type": "address",
          "name": "dst",
          "indexed": true
        },
        {
          "value": "25000000000000000",
          "type": "uint256",
          "name": "wad",
          "indexed": false
        }
      ],
      "raw": {
        "address": "0xc02aaa39b223fe8d0a0e5c4f27ead9083c756cc2",
        "topics": [
          "0xe1fffcc4923d04b559f4d29a8bfc6cda04eb5b0d3c460751c2402c5c5cc9109c",
          "0x0000000000000000000000007a250d5630b4cf539739df2c5dacb4c659f2488d"
        ],
        "data": "0x0000000000000000000000000000000000000000000000000058d15e17628000"
      }
    },
    {
      "name": "Transfer",
      "anonymous": false,
      "inputs": [
        {
          "value": "0x7a250d5630b4cf539739df2c5dacb4c659f2488d",
          "type": "address",
          "name": "src",
          "indexed": true
        },
        {
          "value": "0xa0c9bf9aa601ddfb1cdf3be3ef77e010e4184076",
          "type": "address",
          "name": "dst",
          "indexed": true
        },
        {
          "value": "25000000000000000",
          "type": "uint256",
          "name": "wad",
          "indexed": false
        }
      ],
      "raw": {
        "address": "0xc02aaa39b223fe8d0a0e5c4f27ead9083c756cc2",
        "topics": [
          "0xddf252ad1be2c89b69c2b068fc378daa952ba7f163c4a11628f55a4df523b3ef",
          "0x0000000000000000000000007a250d5630b4cf539739df2c5dacb4c659f2488d",
          "0x000000000000000000000000a0c9bf9aa601ddfb1cdf3be3ef77e010e4184076"
        ],
        "data": "0x0000000000000000000000000000000000000000000000000058d15e17628000"
      }
    },
    {
      "name": "Transfer",
      "anonymous": false,
      "inputs": [
        {
          "value": "0xa0c9bf9aa601ddfb1cdf3be3ef77e010e4184076",
          "type": "address",
          "name": "from",
          "indexed": true
        },
        {
          "value": "0x17b11ed010e715bf4336a88489fe4f0ef6a09dc7",
          "type": "address",
          "name": "to",
          "indexed": true
        },
        {
          "value": "1201840076490568",
          "type": "uint256",
          "name": "value",
          "indexed": false
        }
      ],
      "raw": {
        "address": "0xd81781e686d0ad128b4c7e7b3c072b89f509ea2a",
        "topics": [
          "0xddf252ad1be2c89b69c2b068fc378daa952ba7f163c4a11628f55a4df523b3ef",
          "0x000000000000000000000000a0c9bf9aa601ddfb1cdf3be3ef77e010e4184076",
          "0x00000000000000000000000017b11ed010e715bf4336a88489fe4f0ef6a09dc7"
        ],
        "data": "0x0000000000000000000000000000000000000000000000000004451132d60748"
      }
    },
    {
      "name": "Sync",
      "anonymous": false,
      "inputs": [
        {
          "value": "5161635883710151874",
          "type": "uint112",
          "name": "reserve0",
          "indexed": false
        },
        {
          "value": "263488971740003263",
          "type": "uint112",
          "name": "reserve1",
          "indexed": false
        }
      ],
      "raw": {
        "address": "0xa0c9bf9aa601ddfb1cdf3be3ef77e010e4184076",
        "topics": [
          "0x1c411e9a96e071241c2f21f7726b17ae89e3cab4c78be50e062b03a9fffbbad1"
        ],
        "data": "0x00000000000000000000000000000000000000000000000047a1d07d1c73fcc200000000000000000000000000000000000000000000000003a819d2e2cbbbbf"
      }
    },
    {
      "name": "Swap",
      "anonymous": false,
      "inputs": [
        {
          "value": "0x7a250d5630b4cf539739df2c5dacb4c659f2488d",
          "type": "address",
          "name": "sender",
          "indexed": true
        },
        {
          "value": "25000000000000000",
          "type": "uint256",
          "name": "amount0In",
          "indexed": false
        },
        {
          "value": "0",
          "type": "uint256",
          "name": "amount1In",
          "indexed": false
        },
        {
          "value": "0",
          "type": "uint256",
          "name": "amount0Out",
          "indexed": false
        },
        {
          "value": "1278553272862306",
          "type": "uint256",
          "name": "amount1Out",
          "indexed": false
        },
        {
          "value": "0x17b11ed010e715bf4336a88489fe4f0ef6a09dc7",
          "type": "address",
          "name": "to",
          "indexed": true
        }
      ],
      "raw": {
        "address": "0xa0c9bf9aa601ddfb1cdf3be3ef77e010e4184076",
        "topics": [
          "0xd78ad95fa46c994b6551d0da85fc275fe613ce37657fb8d5e3d130840159d822",
          "0x0000000000000000000000007a250d5630b4cf539739df2c5dacb4c659f2488d",
          "0x00000000000000000000000017b11ed010e715bf4336a88489fe4f0ef6a09dc7"
        ],
        "data": "0x0000000000000000000000000000000000000000000000000058d15e176280000000000000000000000000000000000000000000000000000000000000000000000000000000000000000000000000000000000000000000000000000000000000000000000000000000000000000000000000000000000000048ad661a7c662"
      }
    }
  ],
  "trace": [
    {
      "type": "CALL",
      "from": "0x17b11ed010e715bf4336a88489fe4f0ef6a09dc7",
      "to": "0x7a250d5630b4cf539739df2c5dacb4c659f2488d",
      "gas": "0x35004",
      "gasUsed": "0x2da40",
      "value": "0x58d15e17628000",
      "input": "0xb6f9de950000000000000000000000000000000000000000000000000000000000000000000000000000000000000000000000000000000000000000000000000000008000000000000000000000000017b11ed010e715bf4336a88489fe4f0ef6a09dc70000000000000000000000000000000000000000000000000000000063d41cf70000000000000000000000000000000000000000000000000000000000000002000000000000000000000000c02aaa39b223fe8d0a0e5c4f27ead9083c756cc2000000000000000000000000d81781e686d0ad128b4c7e7b3c072b89f509ea2a",
      "decodedInput": [
        {
          "value": "0",
          "type": "uint256",
          "name": "amountOutMin",
          "indexed": false
        },
        {
          "value": [
            "0xc02aaa39b223fe8d0a0e5c4f27ead9083c756cc2",
            "0xd81781e686d0ad128b4c7e7b3c072b89f509ea2a"
          ],
          "type": "address[]",
          "name": "path",
          "indexed": false
        },
        {
          "value": "0x17b11ed010e715bf4336a88489fe4f0ef6a09dc7",
          "type": "address",
          "name": "to",
          "indexed": false
        },
        {
          "value": "1674845431",
          "type": "uint256",
          "name": "deadline",
          "indexed": false
        }
      ],
      "method": "swapExactETHForTokensSupportingFeeOnTransferTokens",
      "output": "0x",
      "subtraces": 7,
      "traceAddress": []
    },
    {
      "type": "CALL",
      "from": "0x7a250d5630b4cf539739df2c5dacb4c659f2488d",
      "to": "0xc02aaa39b223fe8d0a0e5c4f27ead9083c756cc2",
      "gas": "0x31c34",
      "gasUsed": "0x5da6",
      "value": "0x58d15e17628000",
      "input": "0xd0e30db0",
      "output": "0x",
      "subtraces": 0,
      "traceAddress": [
        0
      ]
    },
    {
      "type": "CALL",
      "from": "0x7a250d5630b4cf539739df2c5dacb4c659f2488d",
      "to": "0xc02aaa39b223fe8d0a0e5c4f27ead9083c756cc2",
      "gas": "0x2bb7b",
      "gasUsed": "0x1f7e",
      "value": "0x0",
      "input": "0xa9059cbb000000000000000000000000a0c9bf9aa601ddfb1cdf3be3ef77e010e41840760000000000000000000000000000000000000000000000000058d15e17628000",
      "decodedInput": [
        {
          "value": "0xa0c9bf9aa601ddfb1cdf3be3ef77e010e4184076",
          "type": "address",
          "name": "dst",
          "indexed": false
        },
        {
          "value": "25000000000000000",
          "type": "uint256",
          "name": "wad",
          "indexed": false
        }
      ],
      "method": "transfer",
      "output": "0x0000000000000000000000000000000000000000000000000000000000000001",
      "decodedOutput": [
        {
          "value": true,
          "type": "bool",
          "indexed": false
        }
      ],
      "subtraces": 0,
      "traceAddress": [
        1
      ]
    },
    {
      "type": "STATICCALL",
      "from": "0x7a250d5630b4cf539739df2c5dacb4c659f2488d",
      "to": "0xd81781e686d0ad128b4c7e7b3c072b89f509ea2a",
      "gas": "0x29100",
      "gasUsed": "0x19fe",
      "input": "0x70a0823100000000000000000000000017b11ed010e715bf4336a88489fe4f0ef6a09dc7",
      "decodedInput": [
        {
          "value": "0x17b11ed010e715bf4336a88489fe4f0ef6a09dc7",
          "type": "address",
          "name": "account",
          "indexed": false
        }
      ],
      "method": "balanceOf",
      "output": "0x0000000000000000000000000000000000000000000000000000000000000000",
      "decodedOutput": [
        {
          "value": "0",
          "type": "uint256",
          "indexed": false
        }
      ],
      "subtraces": 0,
      "traceAddress": [
        2
      ]
    },
    {
      "type": "STATICCALL",
      "from": "0x7a250d5630b4cf539739df2c5dacb4c659f2488d",
      "to": "0xa0c9bf9aa601ddfb1cdf3be3ef77e010e4184076",
      "gas": "0x267d6",
      "gasUsed": "0x9c8",
      "input": "0x0902f1ac",
      "output": "0x0000000000000000000000000000000000000000000000004748ff1f05117cc200000000000000000000000000000000000000000000000003aca4a9447382210000000000000000000000000000000000000000000000000000000063d41a7f",
      "decodedOutput": [
        {
          "value": "5136635883710151874",
          "type": "uint112",
          "name": "reserve0",
          "indexed": false
        },
        {
          "value": "264767525012865569",
          "type": "uint112",
          "name": "reserve1",
          "indexed": false
        },
        {
          "value": 1674844799,
          "type": "uint32",
          "name": "blockTimestampLast",
          "indexed": false
        }
      ],
      "subtraces": 0,
      "traceAddress": [
        3
      ]
    },
    {
      "type": "STATICCALL",
      "from": "0x7a250d5630b4cf539739df2c5dacb4c659f2488d",
      "to": "0xc02aaa39b223fe8d0a0e5c4f27ead9083c756cc2",
      "gas": "0x25c36",
      "gasUsed": "0x216",
      "input": "0x70a08231000000000000000000000000a0c9bf9aa601ddfb1cdf3be3ef77e010e4184076",
      "decodedInput": [
        {
          "value": "0xa0c9bf9aa601ddfb1cdf3be3ef77e010e4184076",
          "type": "address",
          "indexed": false
        }
      ],
      "method": "balanceOf",
      "output": "0x00000000000000000000000000000000000000000000000047a1d07d1c73fcc2",
      "decodedOutput": [
        {
          "value": "5161635883710151874",
          "type": "uint256",
          "indexed": false
        }
      ],
      "subtraces": 0,
      "traceAddress": [
        4
      ]
    },
    {
      "type": "CALL",
      "from": "0x7a250d5630b4cf539739df2c5dacb4c659f2488d",
      "to": "0xa0c9bf9aa601ddfb1cdf3be3ef77e010e4184076",
      "gas": "0x2542c",
      "gasUsed": "0x1daa9",
      "value": "0x0",
      "input": "0x022c0d9f000000000000000000000000000000000000000000000000000000000000000000000000000000000000000000000000000000000000000000048ad661a7c66200000000000000000000000017b11ed010e715bf4336a88489fe4f0ef6a09dc700000000000000000000000000000000000000000000000000000000000000800000000000000000000000000000000000000000000000000000000000000000",
      "decodedInput": [
        {
          "value": "0",
          "type": "uint256",
          "name": "amount0Out",
          "indexed": false
        },
        {
          "value": "1278553272862306",
          "type": "uint256",
          "name": "amount1Out",
          "indexed": false
        },
        {
          "value": "0x17b11ed010e715bf4336a88489fe4f0ef6a09dc7",
          "type": "address",
          "name": "to",
          "indexed": false
        },
        {
          "value": "0x",
          "type": "bytes",
          "name": "data",
          "indexed": false
        }
      ],
      "method": "swap",
      "output": "0x",
      "subtraces": 3,
      "traceAddress": [
        5
      ]
    },
    {
      "type": "CALL",
      "from": "0xa0c9bf9aa601ddfb1cdf3be3ef77e010e4184076",
      "to": "0xd81781e686d0ad128b4c7e7b3c072b89f509ea2a",
      "gas": "0x220ec",
      "gasUsed": "0x153da",
      "value": "0x0",
      "input": "0xa9059cbb00000000000000000000000017b11ed010e715bf4336a88489fe4f0ef6a09dc700000000000000000000000000000000000000000000000000048ad661a7c662",
      "decodedInput": [
        {
          "value": "0x17b11ed010e715bf4336a88489fe4f0ef6a09dc7",
          "type": "address",
          "name": "recipient",
          "indexed": false
        },
        {
          "value": "1278553272862306",
          "type": "uint256",
          "name": "amount",
          "indexed": false
        }
      ],
      "method": "transfer",
      "output": "0x0000000000000000000000000000000000000000000000000000000000000001",
      "decodedOutput": [
        {
          "value": true,
          "type": "bool",
          "indexed": false
        }
      ],
      "subtraces": 0,
      "traceAddress": [
        5,
        0
      ]
    },
    {
      "type": "STATICCALL",
      "from": "0xa0c9bf9aa601ddfb1cdf3be3ef77e010e4184076",
      "to": "0xc02aaa39b223fe8d0a0e5c4f27ead9083c756cc2",
      "gas": "0xd008",
      "gasUsed": "0x216",
      "input": "0x70a08231000000000000000000000000a0c9bf9aa601ddfb1cdf3be3ef77e010e4184076",
      "decodedInput": [
        {
          "value": "0xa0c9bf9aa601ddfb1cdf3be3ef77e010e4184076",
          "type": "address",
          "indexed": false
        }
      ],
      "method": "balanceOf",
      "output": "0x00000000000000000000000000000000000000000000000047a1d07d1c73fcc2",
      "decodedOutput": [
        {
          "value": "5161635883710151874",
          "type": "uint256",
          "indexed": false
        }
      ],
      "subtraces": 0,
      "traceAddress": [
        5,
        1
      ]
    },
    {
      "type": "STATICCALL",
      "from": "0xa0c9bf9aa601ddfb1cdf3be3ef77e010e4184076",
      "to": "0xd81781e686d0ad128b4c7e7b3c072b89f509ea2a",
      "gas": "0xcc65",
      "gasUsed": "0xa5e",
      "input": "0x70a08231000000000000000000000000a0c9bf9aa601ddfb1cdf3be3ef77e010e4184076",
      "decodedInput": [
        {
          "value": "0xa0c9bf9aa601ddfb1cdf3be3ef77e010e4184076",
          "type": "address",
          "name": "account",
          "indexed": false
        }
      ],
      "method": "balanceOf",
      "output": "0x00000000000000000000000000000000000000000000000003a819d2e2cbbbbf",
      "decodedOutput": [
        {
          "value": "263488971740003263",
          "type": "uint256",
          "indexed": false
        }
      ],
      "subtraces": 0,
      "traceAddress": [
        5,
        2
      ]
    },
    {
      "type": "STATICCALL",
      "from": "0x7a250d5630b4cf539739df2c5dacb4c659f2488d",
      "to": "0xd81781e686d0ad128b4c7e7b3c072b89f509ea2a",
      "gas": "0x7edd",
      "gasUsed": "0xa5e",
      "input": "0x70a0823100000000000000000000000017b11ed010e715bf4336a88489fe4f0ef6a09dc7",
      "decodedInput": [
        {
          "value": "0x17b11ed010e715bf4336a88489fe4f0ef6a09dc7",
          "type": "address",
          "name": "account",
          "indexed": false
        }
      ],
      "method": "balanceOf",
      "output": "0x0000000000000000000000000000000000000000000000000004451132d60748",
      "decodedOutput": [
        {
          "value": "1201840076490568",
          "type": "uint256",
          "indexed": false
        }
      ],
      "subtraces": 0,
      "traceAddress": [
        6
      ]
    }
  ],
  "assetChanges": [
    {
      "assetInfo": {
        "standard": "ERC20",
        "type": "Fungible",
        "contractAddress": "0xc02aaa39b223fe8d0a0e5c4f27ead9083c756cc2",
        "symbol": "weth",
        "name": "WETH",
        "logo": "https://coin-images.coingecko.com/coins/images/2518/large/weth.png?1696503332",
        "decimals": 18,
        "dollarValue": "2623.070068359375"
      },
      "type": "Mint",
      "to": "0x7a250d5630b4cf539739df2c5dacb4c659f2488d",
      "rawAmount": "0x58d15e17628000",
      "amount": "0.025",
      "dollarValue": "65.576751708984375"
    },
    {
      "assetInfo": {
        "standard": "ERC20",
        "type": "Fungible",
        "contractAddress": "0xc02aaa39b223fe8d0a0e5c4f27ead9083c756cc2",
        "symbol": "weth",
        "name": "WETH",
        "logo": "https://coin-images.coingecko.com/coins/images/2518/large/weth.png?1696503332",
        "decimals": 18,
        "dollarValue": "2623.070068359375"
      },
      "type": "Transfer",
      "from": "0x7a250d5630b4cf539739df2c5dacb4c659f2488d",
      "to": "0xa0c9bf9aa601ddfb1cdf3be3ef77e010e4184076",
      "rawAmount": "0x58d15e17628000",
      "amount": "0.025",
      "dollarValue": "65.576751708984375"
    },
    {
      "assetInfo": {
        "standard": "ERC20",
        "contractAddress": "0xd81781e686d0ad128b4c7e7b3c072b89f509ea2a"
      },
      "type": "Transfer",
      "from": "0xa0c9bf9aa601ddfb1cdf3be3ef77e010e4184076",
      "to": "0x17b11ed010e715bf4336a88489fe4f0ef6a09dc7",
      "rawAmount": "0x4451132d60748"
    },
    {
      "assetInfo": {
        "standard": "NativeCurrency",
        "type": "Native",
        "symbol": "eth",
        "name": "Ethereum",
        "logo": "https://coin-images.coingecko.com/coins/images/279/large/ethereum.png?1696501628",
        "decimals": 18,
        "dollarValue": "2622.550048828125"
      },
      "type": "Transfer",
      "from": "0x17b11ed010e715bf4336a88489fe4f0ef6a09dc7",
      "to": "0x7a250d5630b4cf539739df2c5dacb4c659f2488d",
      "rawAmount": "0x58d15e17628000",
      "amount": "0.025",
      "dollarValue": "65.563751220703125"
    },
    {
      "assetInfo": {
        "standard": "NativeCurrency",
        "type": "Native",
        "symbol": "eth",
        "name": "Ethereum",
        "logo": "https://coin-images.coingecko.com/coins/images/279/large/ethereum.png?1696501628",
        "decimals": 18,
        "dollarValue": "2622.550048828125"
      },
      "type": "Transfer",
      "from": "0x7a250d5630b4cf539739df2c5dacb4c659f2488d",
      "to": "0xc02aaa39b223fe8d0a0e5c4f27ead9083c756cc2",
      "rawAmount": "0x58d15e17628000",
      "amount": "0.025",
      "dollarValue": "65.563751220703125"
    }
  ],
  "balanceChanges": [
    {
      "address": "0x17b11ed010e715bf4336a88489fe4f0ef6a09dc7",
      "dollarValue": "-65.563751220703125",
      "transfers": [
        2,
        3
      ]
    },
    {
      "address": "0x7a250d5630b4cf539739df2c5dacb4c659f2488d",
      "dollarValue": "0",
      "transfers": [
        0,
        1,
        3,
        4
      ]
    },
    {
      "address": "0xa0c9bf9aa601ddfb1cdf3be3ef77e010e4184076",
      "dollarValue": "65.576751708984375",
      "transfers": [
        1,
        2
      ]
    },
    {
      "address": "0xc02aaa39b223fe8d0a0e5c4f27ead9083c756cc2",
      "dollarValue": "65.563751220703125",
      "transfers": [
        4
      ]
    }
  ],
  "stateChanges": [
    {
      "address": "0x17b11ed010e715bf4336a88489fe4f0ef6a09dc7",
      "nonce": {
        "previousValue": "0x31d",
        "newValue": "0x31e"
      },
      "balance": {
        "previousValue": "0x5fdfa25571d480a",
        "newValue": "0x584383d9d0f3316"
      }
    },
    {
      "address": "0xa0c9bf9aa601ddfb1cdf3be3ef77e010e4184076",
      "storage": [
        {
          "slot": "0x0000000000000000000000000000000000000000000000000000000000000008",
          "previousValue": "0x63d41a7f00000000000003aca4a9447382210000000000004748ff1f05117cc2",
          "newValue": "0x63d41aa300000000000003a819d2e2cbbbbf00000000000047a1d07d1c73fcc2"
        },
        {
          "slot": "0x0000000000000000000000000000000000000000000000000000000000000009",
          "previousValue": "0x00000000000000000000000000000000005f680722e479807ae8f6610af2d940",
          "newValue": "0x0000000000000000000000000000000000614310e0c0499dfb254f7c462f2a6c"
        },
        {
          "slot": "0x000000000000000000000000000000000000000000000000000000000000000a",
          "previousValue": "0x000000000000000000000000000000000645531ed9b172b7cb4e81284c45b72c",
          "newValue": "0x0000000000000000000000000000000008ffbe99534e97f65d417a1f53d1de84"
        }
      ]
    },
    {
      "address": "0xc02aaa39b223fe8d0a0e5c4f27ead9083c756cc2",
      "balance": {
        "previousValue": "0x33f00b2544a7e7ee1be7a",
        "newValue": "0x33f00b2ad1bdc96443e7a"
      },
      "storage": [
        {
          "slot": "0x959664f5dabc5879fc60243cc786352936712b3594317c206cd75b1eb8c3bee3",
          "previousValue": "0x0000000000000000000000000000000000000000000000004748ff1f05117cc2",
          "newValue": "0x00000000000000000000000000000000000000000000000047a1d07d1c73fcc2"
        }
      ]
    },
    {
      "address": "0xd81781e686d0ad128b4c7e7b3c072b89f509ea2a",
      "storage": [
        {
          "slot": "0x804970d14c94c43b47d07f692469658e93b53fae9575e0f847300ae681011b10",
          "previousValue": "0x07018feccea3c30e176d4809fcfab38c3076979541b382df7148448cb706760f",
          "newValue": "0x070696f57a0de5991ec3bccfb69a1cdd70537ac4264c1a5231facd2ffaa03e69"
        },
        {
          "slot": "0xb2326e35d3664578fefae5803d70e1346477d9c3fe74797dd471f5706b603312",
          "previousValue": "0x0000000000000000000000000000000000000000000000000000000000000000",
          "newValue": "0x004ec387d2d41d9b767d65b1f21c8cba7d3f89fdb00e756bece37a9e9268a848"
        },
        {
          "slot": "0xee6349f565c1a653d17e9b080a695ee6b0a0f7fbbc9b3b14ace323278d7c587f",
          "previousValue": "0x43c7cdf4f91e5db0ef086304bc1377a1a4a1c01f9f97d97f52e62370cff3c541",
          "newValue": "0x437403647ae01d8a7134888d10578195e78552f30af0cca0a550202ef9f1549f"
        }
      ]
    },
    {
      "address": "0xdafea492d9c6733ae3d56b7ed1adb60692c98bc5",
      "balance": {
        "previousValue": "0x10042136c53a5b2f",
        "newValue": "0x10174348a9acdb2f"
      }
    }
  ]
}
